:020000040000fa
:08000000d00404000000000020
:020000040000fa
:020000040005f5
:0457f800fe2300008c
:020000040000fa
:020000040005f5
:0457fc007f3e0000ec
:020000040000fa
:10000800ec040000ec040000ec040000ec04000028
:10001800ec040000ec040000ec040000ec04000018
:10002800ec040000ec040000ec04000032040000c2
:10003800ec040000ec040000ec040000ec040000f8
:10004800ec040000ec040000ec040000ec040000e8
:10005800ec040000ec040000ec040000ec040000d8
:10006800ec040000ec040000ec040000ec040000c8
:10007800ec040000ec040000ec040000ec040000b8
:10008800ec040000ec040000ec040000ec040000a8
:10009800ec040000ec040000ec040000ec04000098
:1000a800ec040000ec040000ec040000ec04000088
:1000b800ec040000ec040000ec040000ec04000078
:1000c800ec040000ec040000ec040000ec04000068
:1000d800ec040000ec040000ec040000ec04000058
:1000e800ec040000ec040000ec040000ec04000048
:1000f800ec040000ec040000ec040000ec04000038
:10010800ec040000ec040000ec040000ec04000027
:10011800ec040000ec040000ec040000ec04000017
:10012800ec040000ec040000ec040000ec04000007
:10013800ec040000ec040000ec040000ec040000f7
:10014800ec040000ec040000ec040000ec040000e7
:10015800ec040000ec040000ec040000ec040000d7
:10016800ec040000ec040000ec040000ec040000c7
:10017800ec040000ec040000ec040000ec040000b7
:10018800ec040000ec040000ec040000ec040000a7
:10019800ec040000ec040000ec040000ec04000097
:1001a800ec040000ec040000ec040000ec04000087
:1001b800ec040000ec040000ec040000ec04000077
:1001c800ec040000ec040000ec040000ec04000067
:1001d800ec040000ec040000ec040000ec04000057
:1001e800ec040000ec040000ec040000ec04000047
:0801f800ec040000ec0400001f
:020000040000fa
:10020800ec040000ec040000ec040000ec04000026
:10021800ec040000ec040000ec040000ec04000016
:10022800ec040000ec040000ec04000032040000c0
:10023800ec040000ec040000ec040000ec040000f6
:10024800ec040000ec040000ec040000ec040000e6
:10025800ec040000ec040000ec040000ec040000d6
:10026800ec040000ec040000ec040000ec040000c6
:10027800ec040000ec040000ec040000ec040000b6
:10028800ec040000ec040000ec040000ec040000a6
:10029800ec040000ec040000ec040000ec04000096
:1002a800ec040000ec040000ec040000ec04000086
:1002b800ec040000ec040000ec040000ec04000076
:1002c800ec040000ec040000ec040000ec04000066
:1002d800ec040000ec040000ec040000ec04000056
:1002e800ec040000ec040000ec040000ec04000046
:1002f800ec040000ec040000ec040000ec04000036
:10030800ec040000ec040000ec040000ec04000025
:10031800ec040000ec040000ec040000ec04000015
:10032800ec040000ec040000ec040000ec04000005
:10033800ec040000ec040000ec040000ec040000f5
:10034800ec040000ec040000ec040000ec040000e5
:10035800ec040000ec040000ec040000ec040000d5
:10036800ec040000ec040000ec040000ec040000c5
:10037800ec040000ec040000ec040000ec040000b5
:10038800ec040000ec040000ec040000ec040000a5
:10039800ec040000ec040000ec040000ec04000095
:1003a800ec040000ec040000ec040000ec04000085
:1003b800ec040000ec040000ec040000ec04000075
:1003c800ec040000ec040000ec040000ec04000065
:1003d800ec040000ec040000ec040000ec04000055
:1003e800ec040000ec040000ec040000ec04000045
:0803f800ec040000ec0400001d
:020000040000fa
:1004000001002400213088000000000040308800f6
:1004100000000000000000000000000000000000dc
:1004200000000000000000000000000000000600c6
:10043000d842a900dc42a9000326a8000306a900af
:1004400002e6a90002c6a80002a6a9000286a90029
:100450000266a8000246a9000226a9000206a90019
:100460000c06a8000dc6a80000e6a80000c6a9005a
:100470000106a8000126a80001e6a800dc42a800a9
:1004800040012000fa03020000000000dc42a90045
:1004900040012000fa03020000000000dc42a80036
:1004a00040012000fa03020000000000e00a2000e2
:1004b0000002020000000000b00d20000002020057
:1004c00000000000300220000002020000000000d6
:1004d000900d200000020200000000002002200019
:1004e0000002020000000000100a200000020200ca
:1004f00000000000800c200000020200000000004c
:10050000a00d2000000202000000000020012000d9
:100510000002020000000000800a20000002020029
:1005200000000000f00320000002020000000000b4
:10053000500d20000002020000000000000a200010
:10054000000202000000000010082000000202006b
:100550000000000000062000000202000000000071
:10056000300d20000002020000000000000020000a
:100570000002020000000000600a200000020200e9
:1005800000000000d00a200000020200000000006d
:10059000b00820000002020000000000f00a200065
:1005a000000202000000000060092000fa030200bf
:1005b00000000000400a20000002020000000000cd
:1005c00000042000000202000000000020002000c3
:1005d00000020200000000000001200000020200f2
:1005e0000000000010002000fa03020000000000dc
:1005f00000000600e0428800f142880002438800c3
:10060000000b200080428800f04280004300de00a2
:100610005028b700e04280002000b00090428800df
:10062000f000b200a0428800904280004400de004a
:100630000001b300b0428800f04280004300de00b9
:100640004300dd00904288005e08b50090428800bb
:1006500010002000914280000100dd00c0428800af
:10066000804280000002020000000000a0428000e2
:100670000002020000000000b04280000002020000
:10068000000000001000240020308800000000005e
:10069000403080000000000000000000000000006a
:1006a000000000000000000000000000000000004a
:1006b000100024002030880000000000403080003e
:1006c000000000000000000000000000000000002a
:1006d00000000000000000000000000010002400e6
:1006e0002030880000000000403080000000000042
:1006f00000000000000000000000000000000000fa
:10070000000000000000000060a8bf0002003200ee
:100710005808b7000300370058a8ee005808b60084
:10072000f00fb200d0428800a04280000002020018
:1007300000000000b0428000000202000000000043
:10074000d042800011002400213088000000000009
:1007500040308800000000000000000000000000a1
:100760000000000000000000000000000000000089
:1007700000000600000b200080017800800b2000a4
:100780000018e1001a0031000300780000020200a6
:100790000000000000002000000202000000000035
:1007a00000012000000202000000000042082000ba
:1007b0000000eb0011002400213088000000000040
:1007c0004030880000000000000000000000000031
:1007d0000000000000000000000000000000000019
:1007e0000201e900f3ff3a008301e800e3ff37006c
:1007f0000000060001e8230001800900000000005d
:100800000000e900fbff3a0000000600801f7800ae
:1008100000012000800888000000200030088800c7
:10082000500888004f0078001061a80011e1a8006e
:100830000000060011e1a9003c0880005d0880006e
:100840008d06d1000c86d300000006000000eb00ee
:10085000000778000c000900002f78000007eb006b
:10086000000006008460a900f9ff2f000400780052
:100870008500780006017800fa02020000000000fe
:1008800050002000fa03020000000000040078007d
:100890008500780002002000fa020200000000003b
:1008a000610242004d0820000040060004002000c4
:1008b0008102780002037800040078008500780047
:1008c00006017800fa02020000000000500020003b
:1008d000fa030200000000000400780085007800a0
:1008e00002002000fa020200000000006102420043
:1008f0004d0820008d065200efff3a000000060070
:1009000004002000810278000203780004007800cf
:100910008500780006017800fa020200000000005d
:100920002c23a80000712200ca22ab00feff320077
:1009300061005000fcff3a00040078008500780058
:1009400002002000fa0202000000000061024200e2
:100950004d0820008d065200ecff3a000000060012
:100960000500200006040200000000008500780059
:10097000f2ff2f008004020000000000e18242002c
:100980000d0420008d865200f8ff3a00050020007b
:100990001a04020000000000f4ff37000000060007
:1009a0002f862000007f2400000188009420a800ea
:1009b000a4e0a8001802020000000000ba03020030
:0809c00000000000ffff3700fa
:020000040000fa
:1009c80050080000120000000000000000000000b5
:020000040000fa
:0409d8000000fe001d
:00000001FF
